:040000000C947900E3
:100044000C9419020C9464020C94AF020C94FA02FE
:040064000C943704BD
:1400E4000000F04000000000000000000000CFEFD1E2CDBFDB
:1400F800DEBFCE51D0400AEA08830024EAE0F2E012E0E834DB
:14010C00F10711F00192FBCF0083E8EEF0E0A0E0B2E010E05E
:1401200000E00BBFE23FF10721F0C89531960D92F9CF0E94CA
:140134001E0AFFCF289A089585B18E7F85B9089580910B0127
:140148008D7F80930B01089580910B01826080930B01089520
:14015C008BB18F7D8BB908955D9A089580910B018B7F809398
:140170000B01089580910B01846080930B01089584B38D7FD2
:1401840084BB0895A19A089580910B018F7B80930B010895D0
:1401980080910B01806480930B0108958BB18F7E8BB908956C
:1401AC005C9A089580910B018F7780930B01089580910B01B0
:1401C000806880930B010895809102018F7B809302010895B6
:1401D400809102018064809302010895809102018F7E809338
:1401E8000201089580910201806180930201089580910201A7
:1401FC008F7D80930201089580910201806280930201089587
:14021000809105018F778093050108958091050180688093F5
:140224000501089584B38E7F84BB0895A09A08958BB18F77EA
:140238008BB908955F9A08958BB18F7B8BB908955E9A08957F
:14024C00809105018F7D8093050108958091050180628093B9
:1402600005010895809105018F7B80930501089580910501F9
:140274008064809305010895809105018F7E80930501089502
:1402880080910501806180930501089580910501877F809384
:14029C000501089580910501886080930501089580910501DF
:1402B0008D7F809305010895809105018260809305010895C9
:1402C400809105018B7F809305010895809105018460809341
:1402D80005010895AA92BA925801222433242A143B040CF078
:1402EC0014C022243324309205022092040220910402309194
:14030000050205E010E00E94F20C1501220C331C02151305AB
:1403140090F3B990A990089522243324309205022092040215
:1403280080910402909105028832E0E09E07C0F308952224CD
:14033C003324309205022092040280910402909105028436DC
:14035000E0E09E07C0F30895222433243092050220920402C6
:140364008091040290910502883CE0E09E07C0F30895222487
:140378003324309205022092040280910402909105028039A1
:14038C00E1E09E07C0F30895222422B88FEF81B925B881E091
:1403A00084B928B88FEF87B92BB880EF8AB92EB82DB821BA33
:1403B40020BA24BA83E083BB2092020180E7809301012092F9
:1403C80005018EEF80930401209208012092070120920B0153
:1403DC0087EC80930A01089522242092810084E98093850061
:1403F00081E0809384008BE6809389008FEF809388008BE66A
:1404040080938B008FEF80938A0020928D0020928C008BE63D
:14041800809387008FEF80938600209280002092820081E058
:14042C008093810008950A921A922A923A924A925A926A92F7
:140440007A928A929A920A931A932A933A938A939A93AA93F9
:14045400BA93EA93FA930FB60A9220900002222009F47ADE93
:1404680080910002813009F48DDE80910002823009F4A6DE0E
:14047C0080910002833009F4D1DE80910002843009F4DEDE7A
:1404900080910002853009F4FDDE09900FBEF991E991B99104
:1404A400A991999189913991299119910991999089907990B3
:1404B800699059904990399029901990099018950A921A92BC
:1404CC002A923A924A925A926A927A928A929A920A931A9332
:1404E0002A933A938A939A93AA93BA93EA93FA930FB60A923F
:1404F40020900002222009F435DE80910002813009F44EDE03
:1405080080910002823009F467DE80910002833009F48CDEAB
:14051C0080910002843009F49FDE80910002853009F4BEDE29
:1405300009900FBEF991E991B991A991999189913991299101
:140544001991099199908990799069905990499039902990D7
:140558001990099018950A921A922A923A924A925A926A920C
:14056C007A928A929A920A931A932A933A938A939A93AA93CC
:14058000BA93EA93FA930FB60A9220900002222009F4F6DDEB
:1405940080910002813009F409DE80910002823009F428DEE3
:1405A80080910002833009F447DE80910002843009F460DE55
:1405BC0080910002853009F47FDE09900FBEF991E991B99155
:1405D000A99199918991399129911991099199908990799086
:1405E400699059904990399029901990099018950A921A928F
:1405F8002A923A924A925A926A927A928A929A920A931A9305
:14060C002A933A938A939A93AA93BA93EA93FA930FB60A9211
:1406200084E98093850081E08093840080910402909105028A
:1406340001969093050280930402809100028F5F80930002C2
:1406480087E020900002821518F42224209200022090000236
:14065C002220D9F481DD88DD91DD2090350220928900209078
:140670003402209288002090330220928B002090320220924E
:140684008A002090310220928D002090300220928C00809185
:1406980000028130D9F47CDD85DD8CDD20902F02209289008E
:1406AC0020902E022092880020902D0220928B0020902C0226
:1406C00020928A0020902B0220928D0020902A0220928C00B4
:1406D400809100028230D9F47BDD86DD91DD209029022092CA
:1406E800890020902802209288002090270220928B0020909B
:1406FC00260220928A002090250220928D00209024022092E8
:140710008C00809100028330D9F48ADD8FDD94DD209023029D
:140724002092890020902202209288002090210220928B0068
:140738002090200220928A0020901F0220928D0020901E02BF
:14074C0020928C00809100028430D9F47FDD8ADD95DD2090E2
:140760001D022092890020901C022092880020901B022092A4
:140774008B0020901A0220928A002090190220928D00209024
:14078800180220928C00809100028530D9F484DD8FDD9ADD2C
:14079C0020901702209289002090160220928800209015027C
:1407B00020928B002090140220928A002090130220928D00F2
:1407C4002090120220928C0080910602909107020196909322
:1407D80007028093060288E290E020900602309007028215F7
:1407EC009305B8F42224332430920702209206028091080278
:140800008F5F8093080284E020900802821518F483E08093A2
:140814000802209008022092C60009900FBEF991E991B991E0
:14082800A9919991899139912991199109919990899079902B
:14083C00699059904990399029901990099018952224209284
:14085000C1002092C00086E08093C20087E48093C400209232
:14086400C50088E98093C10008952A928A939A93EA93FA93C9
:140878002FB62A928AE092E0E0910802FF27E80FF91F20908F
:14088C00C600208229902FBEF991E99199918991299018959C
:1408A000F8942224209274002092750073DD9ADDCDDF22246C
:1408B40025BE2092690020926A002092680020926B0020922D
:1408C8006C0020926D002DBA20926E008FE080936F002092E7
:1408DC0070002092710020927200209273007894089522273A
:1408F00033270027112784EB20900302821510F48093030264
:140904002090030280E4829D9001275C3044209302028901DE
:14091800012F1127009301020895AA92A02EA0920302A092BD
:14092C004702DFDF2090010220923502209002022092340278
:14094000A9900895AA92A02EA0920302A0924602CEDF2090B5
:140954000102209233022090020220923202A9900895AA92F9
:14096800A02EA0920302A0924502BDDF2090010220923102C9
:14097C002090020220923002A9900895AA92A02EA0920302B8
:14099000A0924402ACDF2090010220922F0220900202209254
:1409A4002E02A99008954A935A93402F475F409303024093AF
:1409B800430299DF2090010220922D022090020220922C0246
:1409CC00599149910895AA92A02EA0920302A092420287DF99
:1409E0002090010220922B022090020220922A02A990089509
:1409F400AA92A02EA0920302A092410276DF2090010220927F
:140A080029022090020220922802A9900895AA92A02EA0920D
:140A1C000302A092400265DF209001022092270220900202C7
:140A300020922602A9900895AA92A02EA0920302A0923F024E
:140A440054DF20900102209225022090020220922402A9901A
:140A58000895AA92A02EA0920302A0923E0243DF2090010265
:140A6C00209223022090020220922202A9900895AA92A02E35
:140A8000A0923D022A2C332484EB90E0821993098093030216
:140A94002CDF20900102209221022090020220922002A990FA
:140AA8000895AA92A02EA0923C022A2C332484EB90E08219FC
:140ABC0093098093030215DF2090010220921F022090020244
:140AD00020921E02A9900895AA92A02EA0920302A0923B02BA
:140AE40004DF2090010220921D022090020220921C02A990DA
:140AF8000895AA92A02EA0923A022A2C332484EB90E08219AE
:140B0C00930980930302EDDE2090010220921B022090020220
:140B200020921A02A9900895AA92A02EA09239022A2C3324F9
:140B340084EB90E08219930980930302D6DE20900102209266
:140B480019022090020220921802A9900895AA92A02EA092EC
:140B5C000302A0923802C5DE2090010220921702209002023F
:140B700020921602A9900895AA92A02EA09237022A2C3324AF
:140B840084EB90E08219930980930302AEDE2090010220923E
:140B980015022090020220921402A9900895AA92A02EA092A4
:140BAC0036022A2C332484EB90E0821993098093030297DEAD
:140BC00020900102209213022090020220921202A990089557
:140BD400439A089588B1877F88B908950AE59FDE0AE5AEDE8F
:140BE8000AE5BDDE0AE5CCDE0AE5DBDE0AE5EDDE0AE5FCDEAB
:140BFC000AE50BDF0AE51ADF0AE529DF0AE538DF0AE54DDF0C
:140C10000AE562DF0AE571DF0AE586DF0AE59BDF0AE5AADF2C
:140C24000AE5BFDF0895AA92A02E0A2D78DE0A2DDFDE0A2DD0
:140C38004FDFA9900895AA92A02E0A2DA1DE0A2D08DF0A2D8F
:140C4C0084DFA9900895AA92A02E0A2D64DE0A2D95DE0A2DF7
:140C6000C9DE0A2DFADE0A2D37DF0A2D74DFA9900895AA92E1
:140C7400A02E0A2D65DE0A2DCCDE0A2D3CDFA9900895AA92DF
:140C8800A02E0A2D8EDE0A2DF5DE0A2D71DFA9900895AA9244
:140C9C00A02E0A2D51DE0A2D82DE0A2DB6DE0A2DE7DE0A2D7B
:140CB00024DF0A2D61DFA9900895AA92A02E0A2D52DE0A2D38
:140CC400B9DE0A2D2FDFA9900895AA92A02E0A2D7EDE0A2D96
:140CD800E8DE0A2D64DFA9900895AA92A02E0A2D3EDE0A2D5E
:140CEC0072DE0A2DA3DE0A2DDADE0A2D17DF0A2D54DFA9902D
:140D00000895AA92CA92A22EC02E0C2DB2DF0A2DD4DFC990DF
:140D1400A9900895AA92CA92A22EC02E0C2DB1DF0A2DD3DFED
:140D2800C990A9900895AA92CA92A22EC02E0C2DB0DF0A2D33
:140D3C00D2DFC990A9900895AA92A02E009147020A19E9DDF6
:140D5000009141020A194EDE00913B020A0DBCDEA990089517
:140D6400AA92A02E009144020A190CDE00913E020A0D71DE56
:140D7800009138020A0DEBDEA9900895AA92A02E0091470202
:140D8C000A19C9DD009144020A19F8DD009141020A192ADEBC
:140DA00000913E020A0D59DE00913B020A0D94DE00913802FE
:140DB4000A0DCFDEA9900895AA92A02E009147020A0DADDD0C
:140DC800009141020A0D12DE00913B020A1980DEA990089517
:140DDC00AA92A02E009144020A0DD0DD00913E020A1935DE57
:140DF000009138020A19AFDEA9900895AA92A02E00914702BA
:140E04000A0D8DDD009144020A0DBCDD009141020A0DEEDD1C
:140E180000913E020A191DDE00913B020A1958DE00913802E5
:140E2C000A1993DEA9900895AA92A02E0A2D73DD0A2D0DDE95
:140E4000A9900895AA92A02E0A2D9EDD0A2D83DEA99008959E
:140E5400AA92A02E0A2DCCDD0A2D3CDEA9900895AA92A02E6F
:140E6800009147020A1959DD00913E020A0DF1DDA9900895B7
:140E7C00AA92A02E009144020A1980DD009138020A0D63DEDE
:140E9000A9900895AA92A02E009141020A19AADD00913B0222
:140EA4000A0D18DEA9900895AA92CA92A22EC02E0C2D46DDA5
:140EB8000A2D55DD0C2DDEDD0A2DF3DDC990A9900895AA9257
:140ECC00CA92A22EC02E0C2D6ADD0A2D7CDD0C2D4DDE0A2D4D
:140EE00062DEC990A9900895AA92CA92A22EC02E0C2D91DD92
:140EF4000A2DA0DD0C2DFFDD0A2D14DEC990A99008950AE5DA
:140F08003FDD0AE5A6DD0AE522DE089501E438DD01E49FDD60
:140F1C0001E41BDE089503E731DD03E798DD03E714DE089576
:140F30000AE53BDD0AE54DDD0AE5A0DD0AE5B5DD0AE51ADEB9
:140F44000AE52FDE08950DE22EDD0DE240DD0DE293DD0DE2AC
:140F5800A8DD0DE20DDE0DE222DE089507E821DD07E833DDAE
:140F6C0007E886DD07E89BDD07E800DE07E815DE08950AE57D
:140F8000D0DC0AE537DD0AE5A7DD089501E4C9DC01E430DD22
:140F940001E4A0DD089503E7C2DC03E729DD03E799DD0895D5
:140FA8000AE5CCDC0AE5DBDC0AE531DD0AE540DD0AE59FDD84
:140FBC000AE5B4DD08950DE2BFDC0DE2CEDC0DE224DD0DE202
:140FD00033DD0DE292DD0DE2A7DD089507E8B2DC07E8C1DC86
:140FE40007E817DD07E826DD07E885DD07E89ADD089581E06F
:140FF80080930902F1DD9DD90EE31DDE2DE20DE287DE0091A3
:14100C0043020950CCDC93D92AE50AE57FDE00914302095094
:14102000C4DC8BD90EE301DE2DE20DE26ADE85D92AE50AE546
:1410340066DE81D9D3DD009143020950B4DC7BD9222420924F
:14104800090208950E94020D580124EB30E085010E94C20CCD
:14105C000E944B0D1801290104EE10E00E94DE0C3A932A934B
:141070001A930A93810192010E94740D0E941F0D5801442758
:14108400552703C0B6DF4F5F5F4F4A155B05D4F30C94070DEE
:1410980081E080930902A0DD4CD906E7CCDD2DE20DE236DE7B
:1410AC000091430209507BDC42D92AE50AE52EDE00914302AF
:1410C000095073DC3AD906E7B0DD2DE20DE219DE34D92AE5D6
:1410D4000AE515DE30D982DD00914302095063DC2AD9222407
:1410E8002092090208950E94020D580124EB30E085010E9449
:1410FC00C20C0E944B0D1801290104EE10E00E94DE0C3A939A
:141110002A931A930A93810192010E94740D0E941F0D580165
:141124004427552703C0B6DF4F5F5F4F4A155B05D4F30C94F6
:14113800070D81E0809309024FDDFBD80DE231DC0DE243DC07
:14114C000DE296DC0DE2ABDCF2D80CE317DC08E77EDCEDD8FE
:141160000AE523DC0AE535DC0AE588DC0AE59DDCE4D80DE227
:14117400E7DB0DE2F6DB0DE2FDDC0DE212DDDBD80CE3CDDBF5
:1411880008E7E5DCD6D80AE5D9DB0AE5E8DB0AE5EFDC0AE5F7
:14119C0004DDCDD80DE239DC0DE248DC0DE2A7DC0DE2BCDCA9
:1411B000C4D80CE31FDC08E78FDCBFD80AE52BDC0AE53ADCB9
:1411C4000AE599DC0AE5AEDCB6D808DD222420920902089527
:1411D80081E08093090200DDACD82DE20DE298DDA8D804E14B
:1411EC00BBDDA5D82AE50AE591DDA1D82DE20DE282DD9DD823
:141200000AE51DDD9AD804E19DDD97D82AE50AE578DD93D8F3
:141214002DE20DE27FDD8FD80AE505DD8CD82AE50AE578DD7D
:1412280088D8DADC86D8222420920902089581E0809309021F
:14123C00D1DC7DD80DE2B3DB0DE2C5DB0DE218DC0DE22DDCB5
:1412500074D808E799DB0CE300DC6FD80AE5A5DB0AE5B7DBD9
:141264000AE50ADC0AE51FDC66D80DE269DB0DE278DB0DE215
:141278007FDC0DE294DC5DD808E74FDB0CE367DC58D80AE509
:14128C005BDB0AE56ADB0AE571DC0AE586DC4FD80DE2BBDBAB
:1412A0000DE2CADB0DE229DC0DE23EDC46D808E7A1DB0CE331
:1412B40011DC41D80AE5ADDB0AE5BCDB0AE51BDC0AE530DC42
:1412C80038D88ADC00914002075FA1DB32D8222420920902DA
:1412DC00089581E0809309027DDC29D82DE20DE215DD25D89B
:1412F00004E174DD22D82AE50AE50EDD1ED82DE20DE2FFDC02
:141304001AD80AE59ADC17D804E156DD14D82AE50AE5F5DCBC
:1413180010D82DE20DE2FCDC0CD80AE582DC09D82AE50AE5F3
:14132C00F5DC05D857DC03D8222420920902089581E08093DD
:14134000090201E0FFDA0EE60EDB01E02EDB0EE640DB01E01D
:1413540060DB0EE66FDB03EB8FDB06E4A4DB03EBCADB06E4CE
:14136800DFDB03EB05DC06E41ADC01D800D834DC222420924F
:14137C00090208950E940C0D442720900E0222B8442359F441
:1413900020900902222039F489E220900E02821510F441E038
:1413A400CADE442351F420900902222031F480910E028531E8
:1413B80010F441E03CDF442359F420900902222039F48DE294
:1413CC0020900D02821510F441E060DE442351F420900902ED
:1413E000222031F480910D02893110F441E003DE442311F545
:1413F400209009022220F1F420900D0289E1821518F461E0F6
:1414080070E002C0662777276D32E0E07E0784F420900E0277
:14141C0085E1821518F461E070E002C0662777276932E0E0DA
:141430007E0714F441E0D4DB0C94110D31DAD0DB0E949C0099
:1414440008E813E10E946E010AE510E0FDDD0AE510E0FADD30
:141458000AE510E0F7DD0AE510E0F4DD08E813E10E946E0128
:14146C004427552764DE809109028130E1F34F5F5F4F4530D1
:14148000E0E05E07ACF308E813E10E946E0144275527D1DE09
:14149400809109028130E1F34F5F5F4F4A30E0E05E07ACF309
:1414A80008E813E10E946E0104E010E0D3D1089581E08093B2
:1414BC00090290DB0E949D010DE271DA0DE283DA0DE2D6DA41
:1414D0000DE2EBDA0E949D010CE356DA08E7BDDA0E949D012F
:1414E4000AE561DA0AE573DA0AE5C6DA0AE5DBDA0E949D011B
:1414F8000DE224DA0DE233DA0DE23ADB0DE24FDB0E949D019A
:14150C000CE309DA08E721DB0E949D010AE514DA0AE523DA05
:141520000AE52ADB0AE53FDB0E949D010DE273DA0DE282DAF3
:141534000DE2E1DA0DE2F6DA0E949D010CE358DA08E7C8DA48
:141548000E949D010AE563DA0AE572DA0AE5D1DA0AE5E6DA9F
:14155C000E949D013FDB222420920902089581E08093090202
:1415700037DB0E949D010DE2E5D90DE2F4D90DE2BCDA0DE238
:14158400D1DA0E949D0100E5CAD908E7A3DA0E949D010AE545
:14159800D5D90AE5E4D90AE5ACDA0AE5C1DA0E949D010DE2B7
:1415AC0067DA0DE27CDA0DE230DA0DE23FDA0E949D0100E57F
:1415C0004CDA08E717DA0E949D010AE557DA0AE56CDA0AE58D
:1415D40020DA0AE52FDA0E949D010DE2E4D90DE2F6D90DE278
:1415E800C7DA0DE2DCDA0E949D0100E5C9D908E7AEDA0E94C9
:1415FC009D010AE5D4D90AE5E6D90AE5B7DA0AE5CCDA0E943C
:141610009D01E6DA222420920902089581E080930902DEDA91
:141624000E949D010DE2A6DA0DE2BBDA0DE2BBD90DE2CDD967
:141638000E949D010CE38BDA08E7A2D90E949D010AE596DA01
:14164C000AE5ABDA0AE5ABD90AE5BDD90E949D010DE2DBD93B
:141660000DE2EAD90DE20ADA0DE21FDA0E949D010CE3C0D941
:1416740008E7F1D90E949D010AE5CBD90AE5DAD90AE5FAD972
:141688000AE50FDA0E949D010DE233DA0DE248DA0DE254D90D
:14169C000DE263D90E949D010CE318DA08E73BD90E949D01AB
:1416B0000AE523DA0AE538DA0AE544D90AE553D90E949D01D2
:1416C4008DDA222420920902089581E08093090285DA0E948B
:1416D8009D010DE29CD90DE2ABD90DE22FD90DE23ED90E94EA
:1416EC009D010CE381D908E716D90E949D010AE58CD90AE5A2
:141700009BD90AE51FD90AE52ED90E949D010DE24CD90DE241
:141714005ED90DE2F0D90DE205DA0E949D010CE331D908E7DC
:14172800D7D90E949D010AE53CD90AE54ED90AE5E0D90AE50C
:14173C00F5D90E949D010DE219DA0DE22EDA0DE297D90DE264
:14175000ACD90E949D010CE3FED908E77ED90E949D010AE585
:1417640009DA0AE51EDA0AE587D90AE59CD90E949D0134DAA6
:14177800222420920902089581E0809309022CDA0E949D01F8
:14178C000DE276D90DE28BD90DE2F0D90DE205DA0E949D01F2
:1417A0000CE35BD908E7D7D90E949D010AE566D90AE57BD9C2
:1417B4000AE5E0D90AE5F5D90E949D010DE29BD90DE2B0D9A1
:1417C8000DE2EFD80DE201D90E949D010CE380D908E7D6D869
:1417DC000E949D010AE58BD90AE5A0D90AE5DFD80AE5F1D8A0
:1417F0000E949D010DE2A6D80DE2B5D80DE20BD90DE21AD907
:141804000E949D010CE38BD808E7F2D80E949D010AE596D8E8
:141818000AE5A5D80AE5FBD80AE50AD90E949D01DBD9222482
:14182C002092090208954A935A9344275527CEDC80910902D7
:141840008130E1F34F5F5F4F4A30E0E05E07ACF30AE510E096
:141854004CDC5991499108950E94020D58014427552707C03F
:1418680068DC809109028130E1F34F5F5F4F1501220C331C98
:14187C00421553059CF34427552707C0D6DC809109028130ED
:14189000E1F34F5F5F4F4A155B05B4F30AE510E0D5DB4427B4
:1418A400552707C048DC809109028130E1F34F5F5F4F4A156D
:1418B8005B05B4F30AE510E016DC4427552707C038DC809171
:1418CC0009028130E1F34F5F5F4F4A155B05B4F344275527CF
:1418E00007C0A9DC809109028130E1F34F5F5F4F1501220C67
:1418F400331C421553059CF30AE510E0F6DB0C94070D0E944D
:14190800020D58014427552707C02BDE809109028130E1F30B
:14191C004F5F5F4F1501220C331C421553059CF344275527A3
:1419300007C074DE809109028130E1F34F5F5F4F4A155B05CE
:14194400B4F34427552707C0C0DE809109028130E1F34F5F4D
:141958005F4F4A155B05B4F34427552707C00CDF80910902B2
:14196C008130E1F34F5F5F4F1501220C331C421553059CF3B5
:141980000C94070D689401C0E894EA92FA928A93EE24FF240C
:1419940080E1000F111FEE1CFF1CE216F30618F0E21AF30A88
:1419A80003958A95A1F716F40E2D1F2D8991F990E990089592
:1419BC00EA93FA930A92E02FF12FD895002D3196D895102D37
:1419D0003196D895202D3196D895302D0990F991E9910895B7
:1419E4000A921A928A939A93029FC001129F900D039F900D6E
:1419F8008C01999189911990099008955A934A93BA92AA92D9
:141A0C000895A990B9904991599108957A936A935A934A9372
:141A20000895499159916991799108950095109520953095FC
:141A34000F5F1F4F2F4F3F4F08954A935A936A930E942B0E77
:141A4800F1F05523C2F04F31A8F44731C1F050F44195495E79
:141A5C0005C035952795179507954A95D1F70DC04751000FC8
:141A7000111F221F331F4A95D1F705C03FE7232F132F032F47
:141A840004C0662311F00E94160D69915991499108956894E4
:141A980001C0E8942227332746F017FD209517FD309503C0BF
:141AAC00689401C0E8944A935A936A9347E1662755272EF0D7
:141AC00033231AF40E94160D60E80E94400E699159914991F3
:141AD4000895FA93EA93EA81FB8127D0E991F9912296089520
:141AE800FA93EA93EC2FFD2F32961DD0E991F9912496089589
:141AFC00FA93EA93EA81FB8114D0E991F991398328831A93E9
:141B10000A930895FA93EA93EC2FFD2F329607D0E991F99193
:141B24003B832A831983088308954A925A926A927A928A9292
:141B38009A92AA92BA92CA92DA92EA92FA924A935A936A934E
:141B4C007A938A939A933A932A931A930A93008111812281A4
:141B600033810E942B0E09F461C0E62ED52EC42EB32EA22E0A
:141B7400912E802E09911991299139910E942B0E91F16E2538
:141B88004C195D09403853070CF03EC041387FEF57070CF46D
:141B9C0042C080E27724632E522E412E302F222711270027AF
:141BB00066945794479437952795000F111F221F331F441CA7
:141BC400551C661C771C28F0481859086A087B0804C0480CA1
:141BD800591C6A1C7B1C0AF001608A9551F70E94400E99918B
:141BEC0089917991699159914991F990E990D990C990B990F6
:141C0000A99099908990799069905990499008950FEF102FB7
:141C14002FE73FE7662339F30E94160DE4CF0027102F202F9E
:141C2800302FDFCF0991199129913991EDCF0FD029F0662396
:141C3C0011F00E94160D98940895002329F4112319F422233F
:141C500009F433230895F7DF79F0632F6078220F331F432FF2
:141C64005FE7451B55275040269530E8232B33279894089576
:141C78004427552766270895E2DF21F19A938A938EE790E045
:141C8C00332351F0369527951795079548175907C4F44F5FB9
:141CA0005F4FF4CF8095909501962223AAF0000F111F221F8F
:141CB400481759071CF041505040F5CF00271127222733276A
:141CC80089919991089533270FEF102F2FE7322F89919991D5
:141CDC00B4DF39F041585F4F342F220F36952795362B0895D8
:141CF000AADF21F00F9300E830270F910895F8DF3A932A93C7
:141D04001A930A9308958A929A92AA92BA92CA92DA92EA92D0
:141D1800FA924A935A936A937A938A939A930895999189912C
:141D2C007991699159914991F990E990D990C990B990A99095
:061D4000999089900895BE
:00000001FF
